:03000000020D37B7
:0C0D3700787FE4F6D8FD758123020B5490
:100D27003F065B4F666D7D077F6F777C395E797114
:100C4800AE18AF197C037DE8120ABB8E1A8F1BAE53
:100C580018AF197C037DE8120ABB8C188D1975B082
:100C6800FE7408251BF8E6F5A07F017E00120CE74C
:100C7800AE18AF197C007D64120ABB8E1A8F1BAEAA
:100C880018AF197C007D64120ABB8C188D1975B0D9
:100C9800FD7408251BF8E6F5A07F017E00120CE71D
:100CA800AE18AF197C007D0A120ABB8E1A8F1B750D
:100CB800B0FB7408251BF8E6F5A07F017E00120C36
:100CC800E7AE18AF197C007D0A120ABB8C1A8D1B7F
:0F0CD80075B0F77408251BF8E6F5A07F017E00C4
:100CE700E4FDFCC3ED9FEC9E5015E4FBFA0BBB0043
:0F0CF700010AEB64644A70F50DBD00010C80E446
:010D060022CA
:100D0700E4FDFCC3ED9FEC9E5015E4FBFA0BBB0022
:0F0D1700010ABA05F8BB5FF50DBD00010C80E4C1
:010D260022AA
:100B540078087C007D007BFF7A0D79277E007F106A
:100B6400120A95E4F51EF51FF520752123F522756B
:100B740023237580FFC2917F017E00120D07D2915D
:100B84002092FDC290AF808F82758300AD827C007D
:100B9400E412090B7B237ADB79F9783E1208001200
:100BA40009448E838F82E4F51CF51D8583188582A4
:100BB40019120C48051DE51D7002051CC39464E55B
:100BC4001C6480948040E4D290C3E5829523E5833D
:100BD40095224004D2978002C297209306751E0086
:100BE400751F01E51F451E608C20940A0521E5212F
:100BF40070200520801C20950AE52115217013150D
:100C040020800F20960C7522007523237520007513
:100C14002123E4F51CF51D852018852119120C48A3
:100C2400051DE51D7002051CC39464E51C648094D5
:100C34008040E42093AD852022852123E4F51EF530
:040C44001F020BE799
:10080000EC4D6011E8497017ED33EC3304600DE4F2
:10081000FCFFFEFD22E933E8330470F80209B01250
:10082000097B58046009E4CC248150062850090251
:1008300009BA2840030209B7C0E0EB4A7044B98006
:1008400006D0E0FB0209A6EF4E701CBD8008EBFF4E
:10085000EAFEE9FD80EBE98DF0A4FEE5F00208E98F
:10086000E9CDF9EAFEEBFFEF89F0A4FCE5F0CE89D3
:10087000F0A42EFFE435F0CD89F0A42DFEE435F090
:100880008067EF4E7005BD80D780C3EF8BF0A4ACBE
:10089000F0EE8BF0A42CFCE435F0F8EF8AF0A42CF9
:1008A000E5F038FCE433CB8DF0A42CFCE5F03BF80C
:1008B000EE8AF0A42CFCE5F038F8E433CF89F0A4FC
:1008C0002CFCE5F038CF3400CE89F0A42FFFE5F002
:1008D0003EFEE433C98DF0A42EFEE5F039CD8AF05A
:1008E000A42FFFE5F03EFEE43DFD33D0E0FB5007D2
:1008F0000BBB000F0209BAEC2CFCEF33FFEE33FE0A
:06090000ED33FD02099237
:1009060075F020800E75F010800575F0087D007E6C
:10091600007F003392D530D503120AF1EC33401034
:10092600EF33FFEE33FEED33FDEC33FCD5F0ED2275
:0E093600E5F0247EA2D513CC92E7CDCEFF22B1
:10094400EDD2E7CD33EC3392D524814006E4FFFEAB
:10095400FDFC22FCE4CFCECDCC24E0501174FF800A
:10096400EDC3CC13CCCD13CDCE13CECF13CF0470A7
:07097400F030D5DE020AF1AC
:10097B00E9D2E7C933E833F892D5EDD2E7CD33ECC2
:07098B0033FC5002B2D5223B
:10099200EC30E7100FBF000C0EBE00080DBD0004C6
:1009A2000BEB6014A2D5EB13FCED92E7FD2274FF72
:1009B200FCFDFEFF22E480F8A2D574FF13FC7D80CB
:0309C200E480EFDF
:1009C500E709F608DFFA8046E709F208DFFA803E14
:1009D50088828C83E709F0A3DFFA8032E309F60801
:1009E500DFFA8078E309F208DFFA807088828C8369
:1009F500E309F0A3DFFA806489828A83E0A3F6081D
:100A0500DFFA805889828A83E0A3F208DFFA804CF6
:100A150080D280FA80C680D4806980F280338010CD
:100A250080A680EA809A80A880DA80E280CA803336
:100A350089828A83ECFAE493A3C8C582C8CCC583AE
:100A4500CCF0A3C8C582C8CCC583CCDFE9DEE7807E
:100A55000D89828A83E493A3F608DFF9ECFAA9F0FD
:100A6500EDFB2289828A83ECFAE0A3C8C582C8CC53
:100A7500C583CCF0A3C8C582C8CCC583CCDFEADE6C
:100A8500E880DB89828A83E493A3F208DFF980CCCE
:100A950088F0EF60010E4E60C388F0ED2402B404C7
:100AA5000050B9F582EB2402B4040050AF2323456E
:060AB5008223900A157374
:100ABB00C2D5EC30E709B2D5E4C39DFDE49CFCEE56
:100ACB0030E715B2D5E4C39FFFE49EFE120AFFC3C5
:100ADB00E49DFDE49CFC8003120AFF30D507C3E4C0
:060AEB009FFFE49EFE22C5
:0E0AF100C3E49FFFE49EFEE49DFDE49CFC2216
:100AFF00BC000BBE0029EF8DF084FFADF022E4CCDB
:100B0F00F875F008EF2FFFEE33FEEC33FCEE9DECA3
:100B1F00984005FCEE9DFE0FD5F0E9E4CEFD22EDE9
:100B2F00F8F5F0EE8420D21CFEADF075F008EF2F33
:100B3F00FFED33FD4007985006D5F0F222C398FD24
:050B4F000FD5F0EA22C1
:00000001FF
